{
  "contractName": "AddressWhitelist",
  "abi": [
    {
      "constant": true,
      "inputs": [],
      "name": "owner",
      "outputs": [
        {
          "name": "",
          "type": "address"
        }
      ],
      "payable": false,
      "stateMutability": "view",
      "type": "function"
    },
    {
      "constant": false,
      "inputs": [
        {
          "name": "newOwner",
          "type": "address"
        }
      ],
      "name": "transferOwnership",
      "outputs": [],
      "payable": false,
      "stateMutability": "nonpayable",
      "type": "function"
    },
    {
      "anonymous": false,
      "inputs": [
        {
          "indexed": true,
          "name": "addr",
          "type": "address"
        }
      ],
      "name": "LogWhitelistAdd",
      "type": "event"
    },
    {
      "anonymous": false,
      "inputs": [
        {
          "indexed": true,
          "name": "addr",
          "type": "address"
        }
      ],
      "name": "LogWhitelistRemove",
      "type": "event"
    },
    {
      "anonymous": false,
      "inputs": [
        {
          "indexed": true,
          "name": "previousOwner",
          "type": "address"
        },
        {
          "indexed": true,
          "name": "newOwner",
          "type": "address"
        }
      ],
      "name": "OwnershipTransferred",
      "type": "event"
    },
    {
      "constant": true,
      "inputs": [
        {
          "name": "addr",
          "type": "address"
        }
      ],
      "name": "isWhitelisted",
      "outputs": [
        {
          "name": "",
          "type": "bool"
        }
      ],
      "payable": false,
      "stateMutability": "view",
      "type": "function"
    },
    {
      "constant": false,
      "inputs": [
        {
          "name": "addresses",
          "type": "address[]"
        }
      ],
      "name": "addToWhitelist",
      "outputs": [
        {
          "name": "",
          "type": "bool"
        }
      ],
      "payable": false,
      "stateMutability": "nonpayable",
      "type": "function"
    },
    {
      "constant": false,
      "inputs": [
        {
          "name": "addresses",
          "type": "address[]"
        }
      ],
      "name": "removeFromWhitelist",
      "outputs": [
        {
          "name": "",
          "type": "bool"
        }
      ],
      "payable": false,
      "stateMutability": "nonpayable",
      "type": "function"
    }
  ],
  "bytecode": "0x6060604052336000806101000a81548173ffffffffffffffffffffffffffffffffffffffff021916908373ffffffffffffffffffffffffffffffffffffffff16021790555061079d806100536000396000f30060606040526004361061006d576000357c0100000000000000000000000000000000000000000000000000000000900463ffffffff1680633af32abf14610072578063548db174146100c35780637f649783146101355780638da5cb5b146101a7578063f2fde38b146101fc575b600080fd5b341561007d57600080fd5b6100a9600480803573ffffffffffffffffffffffffffffffffffffffff16906020019091905050610235565b604051808215151515815260200191505060405180910390f35b34156100ce57600080fd5b61011b60048080359060200190820180359060200190808060200260200160405190810160405280939291908181526020018383602002808284378201915050505050509190505061028b565b604051808215151515815260200191505060405180910390f35b341561014057600080fd5b61018d600480803590602001908201803590602001908080602002602001604051908101604052809392919081815260200183836020028082843782019150505050505091905050610441565b604051808215151515815260200191505060405180910390f35b34156101b257600080fd5b6101ba6105f7565b604051808273ffffffffffffffffffffffffffffffffffffffff1673ffffffffffffffffffffffffffffffffffffffff16815260200191505060405180910390f35b341561020757600080fd5b610233600480803573ffffffffffffffffffffffffffffffffffffffff1690602001909190505061061c565b005b6000600160008373ffffffffffffffffffffffffffffffffffffffff1673ffffffffffffffffffffffffffffffffffffffff16815260200190815260200160002060009054906101000a900460ff169050919050565b6000806000809054906101000a900473ffffffffffffffffffffffffffffffffffffffff1673ffffffffffffffffffffffffffffffffffffffff163373ffffffffffffffffffffffffffffffffffffffff161415156102e957600080fd5b600090505b82518110156104375760016000848381518110151561030957fe5b9060200190602002015173ffffffffffffffffffffffffffffffffffffffff1673ffffffffffffffffffffffffffffffffffffffff16815260200190815260200160002060009054906101000a900460ff161561042a57600060016000858481518110151561037457fe5b9060200190602002015173ffffffffffffffffffffffffffffffffffffffff1673ffffffffffffffffffffffffffffffffffffffff16815260200190815260200160002060006101000a81548160ff02191690831515021790555082818151811015156103dd57fe5b9060200190602002015173ffffffffffffffffffffffffffffffffffffffff167f63ed6d5de83b65405e74e66aea9f7df2c26bfac71b55f5d75ec5f85930c3520e60405160405180910390a25b80806001019150506102ee565b6001915050919050565b6000806000809054906101000a900473ffffffffffffffffffffffffffffffffffffffff1673ffffffffffffffffffffffffffffffffffffffff163373ffffffffffffffffffffffffffffffffffffffff1614151561049f57600080fd5b600090505b82518110156105ed576001600084838151811015156104bf57fe5b9060200190602002015173ffffffffffffffffffffffffffffffffffffffff1673ffffffffffffffffffffffffffffffffffffffff16815260200190815260200160002060009054906101000a900460ff1615156105e0576001806000858481518110151561052a57fe5b9060200190602002015173ffffffffffffffffffffffffffffffffffffffff1673ffffffffffffffffffffffffffffffffffffffff16815260200190815260200160002060006101000a81548160ff021916908315150217905550828181518110151561059357fe5b9060200190602002015173ffffffffffffffffffffffffffffffffffffffff167f172960d4eef15ccec151ed01c8488f061df273831457381b8aac30412eada1de60405160405180910390a25b80806001019150506104a4565b6001915050919050565b6000809054906101000a900473ffffffffffffffffffffffffffffffffffffffff1681565b6000809054906101000a900473ffffffffffffffffffffffffffffffffffffffff1673ffffffffffffffffffffffffffffffffffffffff163373ffffffffffffffffffffffffffffffffffffffff1614151561067757600080fd5b600073ffffffffffffffffffffffffffffffffffffffff168173ffffffffffffffffffffffffffffffffffffffff16141515156106b357600080fd5b8073ffffffffffffffffffffffffffffffffffffffff166000809054906101000a900473ffffffffffffffffffffffffffffffffffffffff1673ffffffffffffffffffffffffffffffffffffffff167f8be0079c531659141344cd1fd0a4f28419497f9722a3daafe3b4186f6b6457e060405160405180910390a3806000806101000a81548173ffffffffffffffffffffffffffffffffffffffff021916908373ffffffffffffffffffffffffffffffffffffffff160217905550505600a165627a7a723058201673838fa09feaf2c713a8ecb7da78ebe031653df7583d909eeaa4ed72bba5e80029",
  "source": "pragma solidity ^0.4.18;\r\n\r\nimport \"zeppelin-solidity/contracts/ownership/Ownable.sol\";\r\n\r\ncontract AddressWhitelist is Ownable {\r\n    // the addresses that are included in the whitelist\r\n    mapping (address => bool) whitelisted;\r\n    \r\n    function isWhitelisted(address addr) view public returns (bool) {\r\n        return whitelisted[addr];\r\n    }\r\n\r\n    event LogWhitelistAdd(address indexed addr);\r\n\r\n    // add these addresses to the whitelist\r\n    function addToWhitelist(address[] addresses) public onlyOwner returns (bool) {\r\n        for (uint i = 0; i < addresses.length; i++) {\r\n            if (!whitelisted[addresses[i]]) {\r\n                whitelisted[addresses[i]] = true;\r\n                LogWhitelistAdd(addresses[i]);\r\n            }\r\n        }\r\n\r\n        return true;\r\n    }\r\n\r\n    event LogWhitelistRemove(address indexed addr);\r\n\r\n    // remove these addresses from the whitelist\r\n    function removeFromWhitelist(address[] addresses) public onlyOwner returns (bool) {\r\n        for (uint i = 0; i < addresses.length; i++) {\r\n            if (whitelisted[addresses[i]]) {\r\n                whitelisted[addresses[i]] = false;\r\n                LogWhitelistRemove(addresses[i]);\r\n            }\r\n        }\r\n\r\n        return true;\r\n    }\r\n}",
  "sourcePath": "C:\\Users\\jack0\\Desktop\\Jack\\BlockChain Developer\\IOU\\IOU_ICO\\contracts\\AddressWhitelist.sol",
  "compiler": {
    "name": "solc",
    "version": "0.4.19+commit.c4cbbb05.Emscripten.clang"
  },
  "schemaVersion": "1.0.1",
  "updatedAt": "2018-05-17T17:04:36.800Z"
}