{
  "contractName": "Crowdsale",
  "abi": [
    {
      "constant": true,
      "inputs": [],
      "name": "fundingStartTime",
      "outputs": [
        {
          "name": "",
          "type": "uint256"
        }
      ],
      "payable": false,
      "stateMutability": "view",
      "type": "function"
    },
    {
      "constant": true,
      "inputs": [],
      "name": "tokenManager",
      "outputs": [
        {
          "name": "",
          "type": "address"
        }
      ],
      "payable": false,
      "stateMutability": "view",
      "type": "function"
    },
    {
      "constant": true,
      "inputs": [],
      "name": "rate",
      "outputs": [
        {
          "name": "",
          "type": "uint256"
        }
      ],
      "payable": false,
      "stateMutability": "view",
      "type": "function"
    },
    {
      "constant": true,
      "inputs": [
        {
          "name": "",
          "type": "uint256"
        }
      ],
      "name": "batchEther",
      "outputs": [
        {
          "name": "",
          "type": "uint256"
        }
      ],
      "payable": false,
      "stateMutability": "view",
      "type": "function"
    },
    {
      "constant": true,
      "inputs": [
        {
          "name": "",
          "type": "uint256"
        }
      ],
      "name": "batchAmount",
      "outputs": [
        {
          "name": "",
          "type": "uint256"
        }
      ],
      "payable": false,
      "stateMutability": "view",
      "type": "function"
    },
    {
      "constant": true,
      "inputs": [],
      "name": "p1_duration",
      "outputs": [
        {
          "name": "",
          "type": "uint256"
        }
      ],
      "payable": false,
      "stateMutability": "view",
      "type": "function"
    },
    {
      "constant": true,
      "inputs": [
        {
          "name": "addr",
          "type": "address"
        }
      ],
      "name": "isWhitelisted",
      "outputs": [
        {
          "name": "",
          "type": "bool"
        }
      ],
      "payable": false,
      "stateMutability": "view",
      "type": "function"
    },
    {
      "constant": true,
      "inputs": [],
      "name": "p2_start",
      "outputs": [
        {
          "name": "",
          "type": "uint256"
        }
      ],
      "payable": false,
      "stateMutability": "view",
      "type": "function"
    },
    {
      "constant": true,
      "inputs": [],
      "name": "weiRaised",
      "outputs": [
        {
          "name": "",
          "type": "uint256"
        }
      ],
      "payable": false,
      "stateMutability": "view",
      "type": "function"
    },
    {
      "constant": true,
      "inputs": [
        {
          "name": "",
          "type": "uint256"
        }
      ],
      "name": "batchAddress",
      "outputs": [
        {
          "name": "",
          "type": "address"
        }
      ],
      "payable": false,
      "stateMutability": "view",
      "type": "function"
    },
    {
      "constant": false,
      "inputs": [
        {
          "name": "addresses",
          "type": "address[]"
        }
      ],
      "name": "removeFromWhitelist",
      "outputs": [
        {
          "name": "",
          "type": "bool"
        }
      ],
      "payable": false,
      "stateMutability": "nonpayable",
      "type": "function"
    },
    {
      "constant": true,
      "inputs": [],
      "name": "hard_cap",
      "outputs": [
        {
          "name": "",
          "type": "uint256"
        }
      ],
      "payable": false,
      "stateMutability": "view",
      "type": "function"
    },
    {
      "constant": true,
      "inputs": [],
      "name": "fundingEndTime",
      "outputs": [
        {
          "name": "",
          "type": "uint256"
        }
      ],
      "payable": false,
      "stateMutability": "view",
      "type": "function"
    },
    {
      "constant": true,
      "inputs": [],
      "name": "soft_cap",
      "outputs": [
        {
          "name": "",
          "type": "uint256"
        }
      ],
      "payable": false,
      "stateMutability": "view",
      "type": "function"
    },
    {
      "constant": false,
      "inputs": [
        {
          "name": "addresses",
          "type": "address[]"
        }
      ],
      "name": "addToWhitelist",
      "outputs": [
        {
          "name": "",
          "type": "bool"
        }
      ],
      "payable": false,
      "stateMutability": "nonpayable",
      "type": "function"
    },
    {
      "constant": true,
      "inputs": [],
      "name": "owner",
      "outputs": [
        {
          "name": "",
          "type": "address"
        }
      ],
      "payable": false,
      "stateMutability": "view",
      "type": "function"
    },
    {
      "constant": false,
      "inputs": [
        {
          "name": "newOwner",
          "type": "address"
        }
      ],
      "name": "transferOwnership",
      "outputs": [],
      "payable": false,
      "stateMutability": "nonpayable",
      "type": "function"
    },
    {
      "constant": true,
      "inputs": [],
      "name": "token",
      "outputs": [
        {
          "name": "",
          "type": "address"
        }
      ],
      "payable": false,
      "stateMutability": "view",
      "type": "function"
    },
    {
      "inputs": [
        {
          "name": "tokenAddress",
          "type": "address"
        },
        {
          "name": "_fundingStartTime",
          "type": "uint256"
        },
        {
          "name": "_tokenManager",
          "type": "address"
        }
      ],
      "payable": false,
      "stateMutability": "nonpayable",
      "type": "constructor"
    },
    {
      "payable": true,
      "stateMutability": "payable",
      "type": "fallback"
    },
    {
      "anonymous": false,
      "inputs": [
        {
          "indexed": false,
          "name": "from",
          "type": "address"
        },
        {
          "indexed": false,
          "name": "value",
          "type": "uint256"
        }
      ],
      "name": "Buy",
      "type": "event"
    },
    {
      "anonymous": false,
      "inputs": [
        {
          "indexed": true,
          "name": "addr",
          "type": "address"
        }
      ],
      "name": "LogWhitelistAdd",
      "type": "event"
    },
    {
      "anonymous": false,
      "inputs": [
        {
          "indexed": true,
          "name": "addr",
          "type": "address"
        }
      ],
      "name": "LogWhitelistRemove",
      "type": "event"
    },
    {
      "anonymous": false,
      "inputs": [
        {
          "indexed": true,
          "name": "previousOwner",
          "type": "address"
        },
        {
          "indexed": true,
          "name": "newOwner",
          "type": "address"
        }
      ],
      "name": "OwnershipTransferred",
      "type": "event"
    },
    {
      "constant": false,
      "inputs": [
        {
          "name": "sender",
          "type": "address"
        },
        {
          "name": "_value",
          "type": "uint256"
        }
      ],
      "name": "buytoken",
      "outputs": [],
      "payable": false,
      "stateMutability": "nonpayable",
      "type": "function"
    },
    {
      "constant": true,
      "inputs": [],
      "name": "getBonus",
      "outputs": [
        {
          "name": "bonus",
          "type": "uint256"
        }
      ],
      "payable": false,
      "stateMutability": "view",
      "type": "function"
    },
    {
      "constant": false,
      "inputs": [],
      "name": "mintAll",
      "outputs": [],
      "payable": false,
      "stateMutability": "nonpayable",
      "type": "function"
    },
    {
      "constant": false,
      "inputs": [],
      "name": "batchRefund",
      "outputs": [],
      "payable": false,
      "stateMutability": "nonpayable",
      "type": "function"
    },
    {
      "constant": false,
      "inputs": [
        {
          "name": "newowner",
          "type": "address"
        }
      ],
      "name": "changeTokenManager",
      "outputs": [],
      "payable": false,
      "stateMutability": "nonpayable",
      "type": "function"
    },
    {
      "constant": false,
      "inputs": [
        {
          "name": "_value",
          "type": "uint256"
        }
      ],
      "name": "withdrawSome",
      "outputs": [],
      "payable": false,
      "stateMutability": "nonpayable",
      "type": "function"
    },
    {
      "constant": false,
      "inputs": [],
      "name": "withdrawEther",
      "outputs": [],
      "payable": false,
      "stateMutability": "nonpayable",
      "type": "function"
    }
  ],
  "bytecode": "0x6060604052662386f26fc10000600255341561001a57600080fd5b60405160608061175583398101604052808051906020019091908051906020019091908051906020019091905050336000806101000a81548173ffffffffffffffffffffffffffffffffffffffff021916908373ffffffffffffffffffffffffffffffffffffffff1602179055508160098190555061012c600a81905550600a5460095401600b8190555061012c600b5401600c81905550600060038190555082600760006101000a81548173ffffffffffffffffffffffffffffffffffffffff021916908373ffffffffffffffffffffffffffffffffffffffff16021790555080600860006101000a81548173ffffffffffffffffffffffffffffffffffffffff021916908373ffffffffffffffffffffffffffffffffffffffff1602179055505050506116078061014e6000396000f300606060405260043610610149576000357c0100000000000000000000000000000000000000000000000000000000900463ffffffff1680631df93558146101555780632a709b141461017e5780632c4e722e146101d357806337962c78146101fc57806338dc60a3146102335780633950d1b21461026a5780633af32abf146102935780633bb28957146102e45780634042b66f1461030d5780634a768eaa146103365780634d80180614610378578063548db174146103db578063585e1af61461044d578063595882b3146104765780637362377b1461048b57806374eedd46146104a05780637635e1de146104c957806378e2df0e146105025780637f6497831461052b5780638bdff1611461059d5780638da5cb5b146105c65780639552003c1461061b578063ae9b051c14610630578063f2fde38b14610653578063fc0c546a1461068c575b61015333346106e1565b005b341561016057600080fd5b610168610900565b6040518082815260200191505060405180910390f35b341561018957600080fd5b610191610906565b604051808273ffffffffffffffffffffffffffffffffffffffff1673ffffffffffffffffffffffffffffffffffffffff16815260200191505060405180910390f35b34156101de57600080fd5b6101e661092c565b6040518082815260200191505060405180910390f35b341561020757600080fd5b61021d6004808035906020019091905050610932565b6040518082815260200191505060405180910390f35b341561023e57600080fd5b6102546004808035906020019091905050610956565b6040518082815260200191505060405180910390f35b341561027557600080fd5b61027d61097a565b6040518082815260200191505060405180910390f35b341561029e57600080fd5b6102ca600480803573ffffffffffffffffffffffffffffffffffffffff16906020019091905050610980565b604051808215151515815260200191505060405180910390f35b34156102ef57600080fd5b6102f76109d6565b6040518082815260200191505060405180910390f35b341561031857600080fd5b6103206109dc565b6040518082815260200191505060405180910390f35b341561034157600080fd5b610376600480803573ffffffffffffffffffffffffffffffffffffffff169060200190919080359060200190919050506106e1565b005b341561038357600080fd5b61039960048080359060200190919050506109e2565b604051808273ffffffffffffffffffffffffffffffffffffffff1673ffffffffffffffffffffffffffffffffffffffff16815260200191505060405180910390f35b34156103e657600080fd5b610433600480803590602001908201803590602001908080602002602001604051908101604052809392919081815260200183836020028082843782019150505050505091905050610a21565b604051808215151515815260200191505060405180910390f35b341561045857600080fd5b610460610bd7565b6040518082815260200191505060405180910390f35b341561048157600080fd5b610489610be4565b005b341561049657600080fd5b61049e610da2565b005b34156104ab57600080fd5b6104b3610e9f565b6040518082815260200191505060405180910390f35b34156104d457600080fd5b610500600480803573ffffffffffffffffffffffffffffffffffffffff16906020019091905050610ea5565b005b341561050d57600080fd5b610515610f45565b6040518082815260200191505060405180910390f35b341561053657600080fd5b610583600480803590602001908201803590602001908080602002602001604051908101604052809392919081815260200183836020028082843782019150505050505091905050610f52565b604051808215151515815260200191505060405180910390f35b34156105a857600080fd5b6105b0611108565b6040518082815260200191505060405180910390f35b34156105d157600080fd5b6105d9611124565b604051808273ffffffffffffffffffffffffffffffffffffffff1673ffffffffffffffffffffffffffffffffffffffff16815260200191505060405180910390f35b341561062657600080fd5b61062e611149565b005b341561063b57600080fd5b610651600480803590602001909190505061125d565b005b341561065e57600080fd5b61068a600480803573ffffffffffffffffffffffffffffffffffffffff1690602001909190505061136f565b005b341561069757600080fd5b61069f6114c4565b604051808273ffffffffffffffffffffffffffffffffffffffff1673ffffffffffffffffffffffffffffffffffffffff16815260200191505060405180910390f35b60008060006106ef85610980565b15156106f757fe5b83925068056bc75e2d63100000610719846003546114ea90919063ffffffff16565b1015156107735760035468056bc75e2d631000000392508473ffffffffffffffffffffffffffffffffffffffff166108fc8486039081150290604051600060405180830381858888f19350505050151561077257600080fd5b5b610788836003546114ea90919063ffffffff16565b6003819055506107a36002548461150890919063ffffffff16565b91506107ad611108565b90506107c2818461150890919063ffffffff16565b90506107d781836114ea90919063ffffffff16565b9150600680548060010182816107ed919061155e565b91600052602060002090016000859091909150555060048054806001018281610816919061158a565b9160005260206000209001600087909190916101000a81548173ffffffffffffffffffffffffffffffffffffffff021916908373ffffffffffffffffffffffffffffffffffffffff1602179055505060058054806001018281610879919061155e565b9160005260206000209001600084909190915055507fe3d4187f6ca4248660cc0ac8b8056515bac4a8132be2eca31d6d0cc170722a7e8583604051808373ffffffffffffffffffffffffffffffffffffffff1673ffffffffffffffffffffffffffffffffffffffff1681526020018281526020019250505060405180910390a15050505050565b60095481565b600860009054906101000a900473ffffffffffffffffffffffffffffffffffffffff1681565b60025481565b60068181548110151561094157fe5b90600052602060002090016000915090505481565b60058181548110151561096557fe5b90600052602060002090016000915090505481565b600a5481565b6000600160008373ffffffffffffffffffffffffffffffffffffffff1673ffffffffffffffffffffffffffffffffffffffff16815260200190815260200160002060009054906101000a900460ff169050919050565b600b5481565b60035481565b6004818154811015156109f157fe5b90600052602060002090016000915054906101000a900473ffffffffffffffffffffffffffffffffffffffff1681565b6000806000809054906101000a900473ffffffffffffffffffffffffffffffffffffffff1673ffffffffffffffffffffffffffffffffffffffff163373ffffffffffffffffffffffffffffffffffffffff16141515610a7f57600080fd5b600090505b8251811015610bcd57600160008483815181101515610a9f57fe5b9060200190602002015173ffffffffffffffffffffffffffffffffffffffff1673ffffffffffffffffffffffffffffffffffffffff16815260200190815260200160002060009054906101000a900460ff1615610bc0576000600160008584815181101515610b0a57fe5b9060200190602002015173ffffffffffffffffffffffffffffffffffffffff1673ffffffffffffffffffffffffffffffffffffffff16815260200190815260200160002060006101000a81548160ff0219169083151502179055508281815181101515610b7357fe5b9060200190602002015173ffffffffffffffffffffffffffffffffffffffff167f63ed6d5de83b65405e74e66aea9f7df2c26bfac71b55f5d75ec5f85930c3520e60405160405180910390a25b8080600101915050610a84565b6001915050919050565b68056bc75e2d6310000081565b600860009054906101000a900473ffffffffffffffffffffffffffffffffffffffff1673ffffffffffffffffffffffffffffffffffffffff163373ffffffffffffffffffffffffffffffffffffffff16141515610c4057600080fd5b600760009054906101000a900473ffffffffffffffffffffffffffffffffffffffff1673ffffffffffffffffffffffffffffffffffffffff166368573107600460056040518363ffffffff167c01000000000000000000000000000000000000000000000000000000000281526004018080602001806020018381038352858181548152602001915080548015610d2c57602002820191906000526020600020905b8160009054906101000a900473ffffffffffffffffffffffffffffffffffffffff1673ffffffffffffffffffffffffffffffffffffffff1681526020019060010190808311610ce2575b50508381038252848181548152602001915080548015610d6b57602002820191906000526020600020905b815481526020019060010190808311610d57575b5050945050505050600060405180830381600087803b1515610d8c57600080fd5b6102c65a03f11515610d9d57600080fd5b505050565b600860009054906101000a900473ffffffffffffffffffffffffffffffffffffffff1673ffffffffffffffffffffffffffffffffffffffff163373ffffffffffffffffffffffffffffffffffffffff16141515610dfe57600080fd5b60003073ffffffffffffffffffffffffffffffffffffffff1631111515610e2457600080fd5b600860009054906101000a900473ffffffffffffffffffffffffffffffffffffffff1673ffffffffffffffffffffffffffffffffffffffff166108fc3073ffffffffffffffffffffffffffffffffffffffff16319081150290604051600060405180830381858888f193505050501515610e9d57600080fd5b565b600c5481565b600860009054906101000a900473ffffffffffffffffffffffffffffffffffffffff1673ffffffffffffffffffffffffffffffffffffffff163373ffffffffffffffffffffffffffffffffffffffff16141515610f0157600080fd5b80600860006101000a81548173ffffffffffffffffffffffffffffffffffffffff021916908373ffffffffffffffffffffffffffffffffffffffff16021790555050565b6802b5e3af16b188000081565b6000806000809054906101000a900473ffffffffffffffffffffffffffffffffffffffff1673ffffffffffffffffffffffffffffffffffffffff163373ffffffffffffffffffffffffffffffffffffffff16141515610fb057600080fd5b600090505b82518110156110fe57600160008483815181101515610fd057fe5b9060200190602002015173ffffffffffffffffffffffffffffffffffffffff1673ffffffffffffffffffffffffffffffffffffffff16815260200190815260200160002060009054906101000a900460ff1615156110f1576001806000858481518110151561103b57fe5b9060200190602002015173ffffffffffffffffffffffffffffffffffffffff1673ffffffffffffffffffffffffffffffffffffffff16815260200190815260200160002060006101000a81548160ff02191690831515021790555082818151811015156110a457fe5b9060200190602002015173ffffffffffffffffffffffffffffffffffffffff167f172960d4eef15ccec151ed01c8488f061df273831457381b8aac30412eada1de60405160405180910390a25b8080600101915050610fb5565b6001915050919050565b600061111f6002805461152390919063ffffffff16565b905090565b6000809054906101000a900473ffffffffffffffffffffffffffffffffffffffff1681565b6000600860009054906101000a900473ffffffffffffffffffffffffffffffffffffffff1673ffffffffffffffffffffffffffffffffffffffff163373ffffffffffffffffffffffffffffffffffffffff161415156111a757600080fd5b600090505b60048054905081101561125a576004818154811015156111c857fe5b906000526020600020900160009054906101000a900473ffffffffffffffffffffffffffffffffffffffff1673ffffffffffffffffffffffffffffffffffffffff166108fc60068381548110151561121c57fe5b9060005260206000209001549081150290604051600060405180830381858888f19350505050151561124d57600080fd5b80806001019150506111ac565b50565b6000600860009054906101000a900473ffffffffffffffffffffffffffffffffffffffff1673ffffffffffffffffffffffffffffffffffffffff163373ffffffffffffffffffffffffffffffffffffffff161415156112bb57600080fd5b6112d6670de0b6b3a76400008361152390919063ffffffff16565b9050803073ffffffffffffffffffffffffffffffffffffffff16311180156112fe5750600081115b151561130957600080fd5b600860009054906101000a900473ffffffffffffffffffffffffffffffffffffffff1673ffffffffffffffffffffffffffffffffffffffff166108fc829081150290604051600060405180830381858888f19350505050151561136b57600080fd5b5050565b6000809054906101000a900473ffffffffffffffffffffffffffffffffffffffff1673ffffffffffffffffffffffffffffffffffffffff163373ffffffffffffffffffffffffffffffffffffffff161415156113ca57600080fd5b600073ffffffffffffffffffffffffffffffffffffffff168173ffffffffffffffffffffffffffffffffffffffff161415151561140657600080fd5b8073ffffffffffffffffffffffffffffffffffffffff166000809054906101000a900473ffffffffffffffffffffffffffffffffffffffff1673ffffffffffffffffffffffffffffffffffffffff167f8be0079c531659141344cd1fd0a4f28419497f9722a3daafe3b4186f6b6457e060405160405180910390a3806000806101000a81548173ffffffffffffffffffffffffffffffffffffffff021916908373ffffffffffffffffffffffffffffffffffffffff16021790555050565b600760009054906101000a900473ffffffffffffffffffffffffffffffffffffffff1681565b60008082840190508381101515156114fe57fe5b8091505092915050565b600080828481151561151657fe5b0490508091505092915050565b60008060008414156115385760009150611557565b828402905082848281151561154957fe5b0414151561155357fe5b8091505b5092915050565b8154818355818115116115855781836000526020600020918201910161158491906115b6565b5b505050565b8154818355818115116115b1578183600052602060002091820191016115b091906115b6565b5b505050565b6115d891905b808211156115d45760008160009055506001016115bc565b5090565b905600a165627a7a72305820d1fefbdeffdcf8d1ce05a4dc871a69f9b979f5f085445decd690a642c8b77e720029",
  "source": "pragma solidity ^0.4.17;\r\n\r\nimport 'zeppelin-solidity/contracts/token/ERC20/MintableToken.sol';\r\nimport 'zeppelin-solidity/contracts/math/SafeMath.sol';\r\nimport './Token.sol';\r\nimport './AddressWhitelist.sol';\r\n\r\ncontract Crowdsale is AddressWhitelist{\r\n\r\n    using SafeMath for uint256;\r\n\r\n    uint256  public constant soft_cap = 50 ether ; //cap = 1000 ETH (in wei)\r\n    uint256  public constant hard_cap = 100 ether ; //cap = 1000 ETH (in wei)\r\n    uint256  public rate = 10000000000000000; //Ratio = 1 iou :1 eth (1 eth/ 100 because 2 digit use as dicemal) \r\n    uint256 public weiRaised;\r\n\r\n    //Record of contributions\r\n    address[] public batchAddress;\r\n    uint256[] public batchAmount;\r\n    uint256[] public batchEther;\r\n    // The Mintable Token\r\n    Token public token;\r\n\r\n    //fund will be sent to manager's address\r\n    address public tokenManager;\r\n\r\n    //Phase of CrowdSale\r\n    uint256 public fundingStartTime;                           \r\n    uint256 public p1_duration;\r\n    uint256 public p2_start;\r\n    uint256 public fundingEndTime;    \r\n\r\n    modifier onlytokenManager() {\r\n        require(msg.sender == tokenManager);\r\n        _;\r\n    }\r\n\r\n    event Buy (address from, uint256 value);\r\n    \r\n    //Override parent contract's variable\r\n    function Crowdsale(address tokenAddress, uint256 _fundingStartTime, address _tokenManager) public{\r\n\r\n        //Set crowdsale phases period\r\n        fundingStartTime = _fundingStartTime;\r\n        p1_duration = 5 minutes;\r\n        p2_start = fundingStartTime + p1_duration;\r\n        fundingEndTime = p2_start + 5 minutes;\r\n        weiRaised = 0;\r\n        token = Token(tokenAddress);\r\n        tokenManager = _tokenManager;\r\n    }\r\n\r\n    function () payable public{\r\n        \r\n        //Contribution must be during the Funding Period\r\n        // require(now>fundingStartTime);\r\n        // require(now<fundingEndTime);\r\n        \r\n        buytoken(msg.sender,msg.value);\r\n    }\r\n\r\n    function buytoken(address sender, uint256 _value) public {\r\n        assert(isWhitelisted(sender));\r\n        // require(_value>0);\r\n        // require(sender!=address(0));\r\n\r\n        uint256 realValue = _value;\r\n        if (weiRaised.add(realValue) >= hard_cap){\r\n            realValue = hard_cap - weiRaised;\r\n            \r\n            //refund\r\n            sender.transfer(_value - realValue);\r\n        }\r\n\r\n        weiRaised = weiRaised.add(realValue);\r\n        \r\n        //Calculate the actural amount of token you get\r\n        uint256 amount = realValue.div(rate);         \r\n        uint256 bonus = getBonus();\r\n        bonus = realValue.div(bonus);\r\n        amount = amount.add(bonus);\r\n\r\n        // //store the record for minting after Sale Period\r\n        batchEther.push(realValue);\r\n        batchAddress.push(sender);\r\n        batchAmount.push(amount);\r\n\r\n        //emit event\r\n        Buy(sender,amount);\r\n    }\r\n\r\n    function getBonus() public constant returns (uint256 bonus) {\r\n        bonus = rate.mul(2);\r\n        // if ((now>fundingStartTime) && (now<=fundingStartTime + p1_duration)){\r\n        //     bonus = rate.div(2);\r\n        // }\r\n        // else if ((now > p2_start) && (now <= fundingEndTime)){\r\n        //     bonus = rate.div(4);\r\n        // }\r\n        // else{\r\n        //     revert();\r\n        // }\r\n\r\n    }\r\n\r\n    function mintAll() public onlytokenManager{\r\n        // require(now>=fundingEndTime);\r\n         token.batchMint(batchAddress,batchAmount);\r\n    }\r\n\r\n\r\n\r\n    //Only if can't meet softcap\r\n    function batchRefund() public onlytokenManager{ \r\n\r\n        // require(now>fundingEndTime);\r\n        // require (weiRaised < soft_cap);\r\n        \r\n        for (uint i = 0; i < batchAddress.length; i++) {\r\n            batchAddress[i].transfer(batchEther[i]);\r\n            //token.burn(batchAddress[i],batchAmount[i]);\r\n        }\r\n    }\r\n\r\n    function changeTokenManager(address newowner) public onlytokenManager{\r\n        tokenManager = newowner;\r\n    }\r\n    \r\n    function withdrawSome(uint256 _value) public onlytokenManager{\r\n        uint256 value = _value.mul(1 ether);\r\n        require((this.balance>value) && (value>0));\r\n        tokenManager.transfer(value);\r\n    }\r\n\r\n    function withdrawEther() public onlytokenManager{\r\n        require(this.balance>0);\r\n        tokenManager.transfer(this.balance);\r\n    }\r\n\r\n\r\n}",
  "sourcePath": "C:\\Users\\jack0\\Desktop\\Jack\\BlockChain Developer\\IOU\\IOU_ICO\\contracts\\Crowdsale.sol",
  "compiler": {
    "name": "solc",
    "version": "0.4.19+commit.c4cbbb05.Emscripten.clang"
  },
  "schemaVersion": "1.0.1",
  "updatedAt": "2018-07-19T02:50:24.478Z"
}